:020000040800F2
:1000000078060020A9020008B1020008B302000827
:10001000B5020008B7020008B9020008000000009D
:10002000000000000000000000000000BB0200080B
:10003000BD02000800000000BF020008C102000865
:10004000C3020008C3020008C3020008C30200087C
:10005000C3020008C3020008C3020008C30200086C
:10006000C3020008C3020008C3020008C30200085C
:10007000C3020008C3020008C3020008C30200084C
:10008000C3020008C3020008C3020008C30200083C
:10009000C3020008C3020008C3020008C30200082C
:1000A000C3020008C3020008C3020008C30200081C
:1000B000C3020008C3020008C3020008C30200080C
:1000C000C3020008C3020008C3020008C3020008FC
:1000D000C3020008C3020008C3020008C3020008EC
:1000E000C3020008C3020008C302000800F002F8BF
:1000F00000F03AF80AA090E8000C82448344AAF188
:100100000107DA4501D100F02FF8AFF2090EBAE885
:100110000F0013F0010F18BFFB1A43F0010318473B
:100120001C0400003C040000103A24BF78C878C1C9
:10013000FAD8520724BF30C830C144BF04680C60ED
:10014000704700000023002400250026103A28BF35
:1001500078C1FBD8520728BF30C148BF0B60704739
:100160001FB51FBD10B510BD00F0B1F91146FFF766
:10017000F7FF00F017F800F0CFF903B4FFF7F2FF34
:1001800003BC00F0D3F9000001B505E0002000E059
:10019000401CB0F5487FFBD300994A1E009200290D
:1001A000F4D108BD10B564243A48806940F00400D9
:1001B000384988610846806940F00800886108462F
:1001C000806940F0100088613348006820F070407A
:1001D000314908600846006840F0005008602E4829
:1001E0000C30006840F080002B490C3108602B482F
:1001F000006820F0F000294908600846006840F0D7
:100200002000086025480830006840F40070234949
:10021000083108602248406820F07040204948605A
:100220000846406840F0405048600846C06840F4C6
:100230000040C86029E0002017490C3108601948C7
:10024000FFF7A2FF012014490C3108601548FFF7A1
:100250009BFF00201149083108601248FFF794FF06
:100260004FF400700D49083108600E48FFF78CFF0D
:1002700000200B49C8600B48FFF786FF4FF4004091
:100280000749C8600748FFF77FFF002CD3D1002043
:1002900010BD00000010024000080140040C0140A5
:1002A0000010014040420F000948804709480047BC
:1002B000FEE7FEE7FEE7FEE7FEE7FEE7FEE7FEE716
:1002C000FEE7FEE704480549054A064B7047000073
:1002D000C7030008ED000008780000207806002021
:1002E00078020020780200200CB5002001900090D8
:1002F0006C48006840F480306A49086000BF694873
:10030000006800F4003000900198401C01900098B3
:1003100018B90198B0F5A06FF1D16248006800F4F7
:10032000003010B10120009001E000200090009802
:10033000012843D15C48006840F010005A49086029
:100340000846006820F0030008600846006840F096
:1003500002000860534840685249486008464068B7
:1003600048600846406840F480604860084640683D
:1003700020F47C1048600846406840F4E81048606B
:100380000846006840F08070086000BF454800687B
:1003900000F000700028F9D04248406820F00300C7
:1003A000404948600846406840F00200486000BF8D
:1003B0003C48406800F00C000828F9D10CBD10B58D
:1003C000FFF792FF10BD10B53648006840F00100FD
:1003D000344908600846406834490840314948605B
:1003E00008460068324908402E49086008460068FF
:1003F00020F4802008600846406820F4FE00486031
:100400004FF41F008860FFF7DAFF4FF000602949C2
:10041000086010BD10B5002100200022214B5B6850
:1004200003F00C0121B1042906D0082928D107E0E6
:10043000214B224C236027E01F4B204C236023E0FC
:10044000184B5B6803F47010164B5B6803F4803242
:10045000022303EB904022B9194B4343174C23600E
:100460000DE0104B5B6803F4003323B1144B43439E
:10047000124C236003E0104B4343104C236003E015
:100480000D4B0E4C236000BF00BF064B5B68C3F3EF
:1004900003130C4CE15C094B1B68CB40074C2360F9
:1004A00010BD000000100240002002400000FFF8D4
:1004B000FFFFF6FE08ED00E000127A0000000020C9
:1004C00000093D00040000207047704770477546E2
:1004D00000F028F8AE4605006946534620F00700B4
:1004E000854618B020B5FFF7EDFEBDE820404FF07F
:1004F00000064FF000074FF000084FF0000B21F00E
:100500000701AC46ACE8C009ACE8C009ACE8C009DA
:10051000ACE8C0098D4670470446AFF30080204622
:10052000FFF72BFE004870471400002001491820F7
:10053000ABBEFEE726000200704700005C05000825
:1005400000000020140000002801000870050008C9
:1005500014000020640600004401000800A24A04C0
:100560000000000000000000010203040607080963
:04000005080002A944
:00000001FF
